:020000040800F2
:10000000A8360020990100085D200008B11C0008F6
:10001000592000082D130008812E00080000000060
:1000200000000000000000000000000001010008C6
:10003000911700080000000045010008E1270008B2
:10004000B3010008B3010008B3010008B3010008C0
:10005000B3010008B3010008B3010008B3010008B0
:10006000B3010008B3010008B3010008B3010008A0
:10007000F9130008B3010008B3010008B301000838
:10008000B3010008B3010008B3010008B301000880
:10009000B3010008B3010008B3010008B301000870
:1000A000B3010008B3010008B3010008B301000860
:1000B000B3010008B3010008B3010008B301000850
:1000C000B3010008B3010008B3010008B301000840
:1000D000B3010008212C0008B3010008B301000897
:1000E000B3010008B3010008B3010008DFF80CD029
:1000F00000F04CFE00480047BD380008A83600203C
:10010000224B19680868B0E8F00F80F30988BFF344
:100110006F8F4FF0000080F311884EF00D0E704786
:100120000000000006480068006880F3088862B696
:1001300061B6BFF34F8FBFF36F8F00DF00BF00BF0B
:1001400008ED00E0EFF30980BFF36F8F0F4B1A68E3
:1001500020E9F00F106008B54FF0500080F31188CF
:10016000BFF34F8FBFF36F8F04F04EF94FF00000D5
:1001700080F31188BDE8084019680868B0E8F00FFE
:1001800080F30988BFF36F8F704700BF44000020E1
:10019000EFF3058070470000064880470648004797
:1001A000FEE7FEE7FEE7FEE7FEE7FEE7FEE7FEE727
:1001B000FEE7FEE715280008ED00000840EA01030D
:1001C0009B0703D009E008C9121F08C0042AFAD20D
:1001D00003E011F8013B00F8013B521EF9D27047D1
:1001E000D2B201E000F8012B491EFBD27047002279
:1001F000F6E710B513460A4604461946FFF7F0FF26
:10020000204610BD30B505462A460B4612F8010BB4
:1002100013F8014B08B1A042F8D01CB1002802D05D
:100220006D1CF1E7284630BD421C10F8011B002967
:10023000FBD1801A704700000FB400B58DB010A933
:1002400009900B9000914FF0FF300A9000200C9025
:1002500005480690054807906A4609A80F9900F0DE
:100260003FFC0DB05DF814FBFD0A00081B0B0008F5
:100270002DE9FF5F1D464FF0FF3BD5E90146914652
:100280005F464FF00008A9697F1C01988847296ADA
:10029000824688470028F6D1BAF1FF3F0CD024F4FB
:1002A000C064002E19DD600614D5BAF12B0F09D0F9
:1002B000BAF12D0F0ED103E0584604B0BDE8F09F0F
:1002C00044F48064A9697F1C01988847761E8246A1
:1002D000002E02DDBAF1300F03D0B9F1000F26D0A5
:1002E00032E0A969761E44F400747F1C01988847A7
:1002F0008246002E05DDBAF1780F06D0BAF1580F0C
:1003000003D0B9F1000F10D01EE0B9F1000F02D0F8
:10031000B9F1100F18D1A969761E24F400747F1C5E
:10032000019888478246102002E0082000E00A2059
:10033000814609E008FB0908A969761E44F40074A7
:100340007F1C019888478246002E05DD49465046AD
:1003500000F0B2FB0028EDDAE96901988847A005B2
:1003600002D46FF00100A8E7E00725D1600613D59D
:10037000600502D5C8F1000000E0404629680A1D6A
:100380002A600968220501D5087015E0220701D509
:10039000088011E008600FE02868011D29600068EE
:1003A000210502D580F8008006E0210702D5A0F8DB
:1003B000008001E0C0F8008038467EE72DE9FF4F5D
:1003C000087883B09946FF2805D0491C2D2804D011
:1003D0000024002008E000200BE00124F9E700EBF6
:1003E000800003EB4000491C0B78FF2BF7D104B1D0
:1003F000404200230293147819461D462D2C01D04B
:100400002B2C04D1521C2D2C13D000240294AA466C
:100410001478FF2C0FD00A25A3FB057801FB05817A
:100420004FF0000C03FB0C11521CE3194AEB0101C5
:10043000EEE70124EAE7814453EA010002D019F50E
:10044000C87F06DA03980021C0E9001107B0BDE8B3
:10045000F08F0025AE4E2F46DFF8B882184600F028
:100460003CFCCDE90001B9F1000002DAC9F1000459
:1004700000E004460023A74A1AEB030B42EB045AA0
:1004800012E0E00707D02A4633463846414600F0DE
:10049000B2FB074688462A4633461046194600F006
:1004A000AAFB05460E466410002CEAD1DDE90001E6
:1004B000B9F1000F5A46534606DA00F0D6F93A462B
:1004C000434600F0D2F905E000F095FB3A4643467A
:1004D00000F091FB029A0AB181F00041039AC2E94F
:1004E0000001B3E72DE9FF4F1F468DB0D7E9014664
:1004F0004FF0FF382E2045464FF000090B90B969A8
:100500006D1C0E988847396A824688470028F6D1C4
:10051000BAF1FF3F0AD024F4D064002E11DDBAF105
:100520002B0F08D0BAF12D0F0BD102E0404611B0CD
:100530008DE744F48064B9696D1C0E988847824643
:10054000761E6946600501D52D2000E02B208DF830
:10055000000001F1010B0DF1200809E0B9696D1CE3
:100560000E98884782460F9844F40074761E056002
:10057000002E02DDBAF1300FF0D00B998A453ED142
:1005800044F0800406E00F99681CA9F1010944F4C5
:1005900000740860B9696D1C761E0E988847824603
:1005A0003028F0D02BE00B998A4505D1200603D4E2
:1005B00044F08004761E18E0504602F0DBFD08B3DC
:1005C0000DF11301761E44F400748B4508D2AAF194
:1005D00030000BF8010B200607D5A9F1010003E05C
:1005E000200602D409F101008146A00502D50F9929
:1005F000681C0860B9696D1C0E9888478246002EF9
:10060000D1DC53E0002E51DDBAF1650F02D0BAF112
:10061000450F4BD1A00549D5B9696D1C24F4407430
:10062000761E0E9888478246002E0CDD2B2804D0BB
:10063000BAF12D0F07D144F48074B9696D1C0E987E
:1006400088478246761EE00501D52D2100E02B214A
:1006500008F8011BCDF82C8021E00DF12901761E50
:1006600044F4007488450CD2AAF1300010F0FF0069
:1006700088F8000002D10B99884509D908F10108D2
:1006800006E0E00501D5244801E042F20F70814602
:10069000B9696D1C0E98884782460F980560002E38
:1006A00004DD504602F066FD0028D6D1F9690E98A7
:1006B0008847FF208BF8000088F800000020069093
:1006C00007904B466A4608A906A8FFF777FEA005E3
:1006D00002D46FF001002AE714F0240F0AD0E007DB
:1006E00014D1DDE906123868031D3B600068C0E9DB
:1006F00000120BE0DDE9060100F02CFB0146E007EB
:1007000004D13868021D3A600068016028460EE78F
:10071000000014400000F03FF1D8FFFF2DE9FE4F2C
:10072000804681EA0300C00F0C46009021F0004192
:1007300023F00045B8EB0200A94105D2404621460E
:1007400090461C460B46024623F00040104347D01B
:10075000270DC7F30A00C3F30A510290401A019013
:1007600040286BDAC3F3130040F4801B00989246D4
:1007700020B10023D2EB030A63EB0B0B019859461F
:10078000C0F14002504600F066F906460D4650465C
:100790005946019A00F07EF910EB080061410024EF
:1007A00087EA115284EAE7731A4340D0009A62B391
:1007B000019A012A4FEA075215DC001B61EB020186
:1007C0004FF0004202EA0752CDE90042001C41F519
:1007D000801132462B4600F0C0F903B0BDE8F08F1F
:1007E00040462146F9E7001B61EB0201001C41F580
:1007F000801300185B412018A2F5001747EB030196
:1008000040EAD570B6196D4111E06D084FEA360621
:1008100045EAC0754FEA0752001B61EB0201001C5C
:1008200041F5801149084FEA300000195141324624
:100830002B4603B0BDE8F04F00F080B900980122CC
:1008400040000023D0EB020263EBE07300982146E6
:100850004FEAE074B8EB000061EB0401E9E783F0D4
:1008600000435BE781F0004158E72DE9F04D81EA54
:10087000030404F0004B21F0004514464FF0000A39
:1008800023F0004150EA050220D054EA01021DD0B5
:10089000C5F30A570246C5F31303C1F31300C1F3AE
:1008A0000A5640F4801543F48013A7EB0608101B8A
:1008B000D64608F2FD3873EB050002D308F10108B3
:1008C00001E092185B41B8F1000F03DA0020014605
:1008D000BDE8F08D00204FF48011064684460EE0FE
:1008E000171B73EB050705D3121B63EB05030643C8
:1008F0004CEA010C49084FEA300092185B4150EA7B
:100900000107EDD152EA030012D082EA040083EA23
:100910000501084305D0101BAB4106D2012200237C
:1009200006E000224FF0004302E06FF00102531096
:100930001AEB06004CEB085110EB0A0041EB0B01DF
:10094000BDE8F04D00F0FAB8C1F30A5210B5C1F39A
:10095000130140F2FF3341F480119A4201DA002082
:1009600010BD40F233439A42A2F2334203DC5242BA
:1009700000F080F810BD904010BD00F0004230F053
:1009800000400AD0C10D01F56071C0F3160042EAC3
:100990000151C208400711437047002001467047CB
:1009A000002801DBC0F10040002901DBC1F100415A
:1009B00081427047002801DBC0F10040002901DBC3
:1009C000C1F100418842704730B50B460146002016
:1009D0002022012409E021FA02F59D4205D303FA01
:1009E00002F5491B04FA02F52844151EA2F1010282
:1009F000F1DC30BD2DE9F05F0546002092469B46B4
:100A000088460646814640241BE028464146474624
:100A1000224600F02FF853465A46C01A914110D38F
:100A200011461846224600F016F82D1A67EB010809
:100A30004F4622460120002100F00DF817EB000977
:100A40004E41201EA4F10104DFDC484631462A460F
:100A50004346BDE8F09F202A04DB203A00FA02F169
:100A6000002070479140C2F1200320FA03F319439C
:100A700090407047202A04DB203A21FA02F000213E
:100A8000704721FA02F3D040C2F12002914008439E
:100A900019467047202A06DBCB17203A41FA02F0AC
:100AA00043EAE07306E041FA02F3D040C2F12002CB
:100AB00091400843194670473A2800D2303820F058
:100AC0002002412A01D3A2F13700884201D34FF01E
:100AD000FF30704702681144137801601846704770
:100AE000D16004495161044911620021116111462C
:100AF00000F064B9D50A0008B10D0008426842B19F
:100B0000016811F8013B23B1521EC0E900121846DA
:100B100070470121C160881E704742685AB1C3689E
:100B2000016843B983688B4205D0491E521CC0E955
:100B30000012002070474FF0FF30704710B5141EB0
:100B400073F1000408DA401C41F1000192185B4186
:100B50001A4301D120F0010010BD2DE9F04D92465D
:100B60009B4611B1B1FA81F202E0B0FA80F2203274
:100B70009046FFF770FF04460F4640EA0A0041EA3C
:100B80000B0153465A46084313D0114653EA01005D
:100B900019D0C8F140025046FFF76CFF05460E46DB
:100BA000504659464246FFF756FF084305D00120FC
:100BB00004E020463946BDE8F08D0020054346EAB2
:100BC000E0762C4337430A986305E40AA0EB08005B
:100BD0000022FD0A44EA47540A3002D500200146AB
:100BE000E9E7010510196941DDE908450019694186
:100BF000BDE8F04DA2E72DE9FE4F81EA030404F0C1
:100C0000004421F0004100944FF0000B23F000431A
:100C100050EA01045ED052EA03045BD0C3F30A54E5
:100C2000C1F30A552C44A4F2F3340194A0FB0254FE
:100C3000C1F3130141F48011C3F3130343F4801390
:100C400001FB024400FB034E840A970A44EA8154E4
:100C500047EA8357A4FB076802958D0A05FB0785C1
:100C60004FEA932C04FB0C542705029D4FEA0658CB
:100C700047EA1637B5EB08056EEB070C870E920EA8
:100C800047EA811742EA8312A7FB0201B6EB0B0188
:100C900064EB00042B0D43EA0C335E1844EB1C504C
:100CA000DA465146E7FB0201C5F313044FEA0B3362
:100CB00043EA14534FEA0432019C43EA0603A4F1C9
:100CC0000C040294009CCDE900B4FFF746FF03B08A
:100CD000BDE8F08F00200146F9E70EB540F233423F
:100CE00002920022CDE900221346FFF736FF03B03F
:100CF00000BDC1F30A52C1F3130140F2FF3341F4C6
:100D000080119A4202DA00200146704740F23343D4
:100D10009A42A2F2334202DC5242FFF7ABBEFFF727
:100D20009ABE000030B5041E71F1000404DB4FF0E0
:100D30000044404264EB0101141E73F1000405DB22
:100D40001C464FF00043524263EB0403994208BF34
:100D5000904230BD01F0004330B421F0004150EA30
:100D6000010206D00A0DA2F56072C1F31301002A38
:100D700002DC30BC00207047440F44EAC104C100CB
:100D8000E01830BC00EBC25000F0AEB9064C074D85
:100D900006E0E06840F0010394E80700984710344B
:100DA000AC42F6D3FFF7A6F9744E0008944E000843
:100DB000C0B24FF4F05100F0CFB900002DE9F34F6D
:100DC0008BB04FF0000801F10C000C464FF0010B06
:100DD00046460DF1080A0190626901210198904789
:100DE000051E2DD0252D2CD0216A8847C0B16269FF
:100DF000012101989047216A88470028F7D1411EB8
:100E000062690198904700E0761CA1690B988847B9
:100E1000216A88470028F7D1E1690B988847DBE70A
:100E2000A1690B9888470746A84201D1761CD3E7F1
:100E3000E1690B9888477F1C02D1B8F1000F6FD091
:100E400046E1002762693D463946019890472A28C5
:100E500004D162690121019890470125DFF884924D
:100E60006269012101989047A0F130010A290AD254
:100E70004F45E5DC07EB870100EB4107303FDFD44E
:100E800045F01005ECE7E90601D46FF000476C2847
:100E90000AD04C2814D0682815D06A280DD07428A0
:100EA0001CD07A281AD01DE0626901210198904770
:100EB0006C2802D045F0040514E045F002050DE071
:100EC00045F020050AE062690121019890476828F1
:100ED00002D045F0080505E045F40065626901218E
:100EE00001989047C4E9015765283DD019DC58287E
:100EF0007AD00CDC452837D004DC252826D04128C0
:100F000031D131E046282FD047282CD12CE05B2866
:100F100077D0612828D063287CD0642823D15AE078
:100F2000D0E06F2848D008DC66281DD067281BD089
:100F3000692821D06E2816D127E0702845D0732863
:100F400068D0752847D078280DD14DE0A1690B985D
:100F50008847054625283FF469AFE1690B98884723
:100F60006D1C3FF46AAFB3E023466A466FF00100A0
:100F70000B99FFF7B7FA9EE045F040006060A807C4
:100F800023464FF0000236D43EE0E8077FF447AF37
:100F90002068011D21600068290501D506701BE746
:100FA000290701D5068017E7A90703D5F117C0E97E
:100FB000006111E706600FE745F040006060A80798
:100FC00023464FF0080216D41EE040F60E0125EA33
:100FD0000100606016E045F040006060A80723460D
:100FE0004FF00A0207D40FE045F040006060A80708
:100FF00008D5234610226FF001000B99AFF3008053
:1010000059E007E0234610226FF001000B99FFF72B
:101010002FF950E04FF000094F464B46632802D0AD
:101020005B2806D040E0E80601D40120A06001273B
:101030003AE062690121019890475E2805D14FF09E
:1010400001096269494601989047216939B900212F
:101050000A46534643F82120491C0829FADBB0B35D
:10106000216969B9C11700EBD16253110AEB830101
:1010700022F01F02821A01200B68904003430B608C
:1010800062690121019890475D28E8D1B9F1000F0C
:1010900009D00020514651F82020D24341F82020A9
:1010A000401C0828F7DB02AB224600976FF00100D6
:1010B0000B99AFF3008000280CDA401C08D1BBF17B
:1010C000000F05D04FF0FF300DB0BDE8F08FFFE707
:1010D0004046F9E7E90701D108F1010806444FF05D
:1010E000000B79E6CCCCCC0C0029A8BF7047401C83
:1010F000490008BF20F00100704710B4B0FA80FC2E
:1011000000FA0CF050EA010404BF10BC704749B16A
:10111000CCF1200421FA04F411FA0CF118BF0121DA
:1011200021430843A3EB0C01CB1D4FEA00614FEABA
:10113000102042BF002010BC704700EBC350104489
:101140000029A4BF10BC7047401C490008BF20F014
:10115000010010BC704700007F2801D9002208E080
:10116000064A02EB5002C007127800D1120902F0C1
:101170000F0201209040084070470000324E0008E6
:101180002DE9F84F0446894600200090012C06D036
:10119000022C17D0032C29D0042C4FD13AE048461A
:1011A000FFF7EBFB8246294A294BFFF75EFB074618
:1011B0000022284BFFF7B2FA0546FFF7C5FB264988
:1011C00008803EE04846FFF7D8FB07461F4A204B01
:1011D000FFF74BFB824600221E4BFFF79FFA0546A6
:1011E000FFF7B2FB1C49091D08802AE04846FFF7BB
:1011F000C4FB0746154A164BFFF737FB054600228E
:10120000144BFFF78BFA8246FFF79EFB1249083119
:10121000088016E04846FFF7B0FB07460B4A0C4B28
:10122000FFF723FB054600220A4BFFF777FA8246B9
:10123000FFF78AFB08490C31088002E0012000908A
:1012400000BF00BF0098BDE8F88F0000CDCCCCCC2B
:10125000CCCCEC3F000049403408004070B5044657
:101260000D46002624B1012C09D0022C13D10CE02C
:101270002A464FF400410A4800F015FD0DE02A46C9
:101280000821084800F00FFD07E02A461021054814
:1012900000F009FD01E0012600BF00BF304670BD2F
:1012A00000080140000C014000B589B07420ADF881
:1012B0001C005E20ADF81E009B20ADF8200096209B
:1012C000ADF822000121082001F056F80121042088
:1012D00001F042F8182303224FF47071114800F016
:1012E000D6FD0020009040F2CF73024640F2CF219D
:1012F00001900D4800F020FE002002900390049021
:10130000059007A8002101236022CDE900100F21DC
:10131000054800F029FE0121034801F0B7FA09B0A1
:1013200000BD0000000C01400008004000BFFEE7C7
:1013300006E00EA000F02EFA4FF4FA7002F08CFFD7
:1013400000F08EFE0028F4D10EA000F023FA00F089
:10135000ADFE09E0104800F019FF10B901200F4957
:1013600008700A2002F078FFF4E700004E5246327F
:10137000344C3031204E4F5420464F554E440D0AC8
:10138000000000004E524632344C303120464F555A
:101390004E440D0A000000004402002040000020DE
:1013A0001CB500F087FC00F09BFF0A4803210023D6
:1013B0004022CDE9001008A1094803F0C5FA094808
:1013C000042100238022CDE9001007A1094803F081
:1013D000BBFA1CBD380000204C65645461736B007F
:1013E000191D00083C000020436D75635461736B48
:1013F000000000003113000808B5202000F03CF880
:10140000B0B1202000F01AF80A48D0F8CC0078B12A
:101410000849D1F8CC00694603F084F9009838B146
:101420004FF0805004490860BFF34F8FBFF36F8FB8
:1014300008BD00007401002004ED00E000F08051C0
:1014400011B10349086001E002494860704700009B
:10145000040402400000024021B1026842F001028F
:10146000026004E002684FF6FE731A4002607047A3
:101470000146486880B2704701460020002201F012
:10148000805313B1054B1A6801E0054B1A6802EA54
:1014900001030BB1012000E000207047000402406E
:1014A000000002401AB103680B43036002E00368C6
:1014B0008B430360704710B50022026847F6F07353
:1014C0009A430C6A8B6823430C6923434C6923437A
:1014D0008C692343CC6923434C6A23438C6A23439E
:1014E0001A430260CB6843600B6883604B68C3603B
:1014F00010BD00001CB501F0C5FC05480221002309
:101500008022CDE9001003A1054803F01DFA1CBD9F
:101510003000002044656275675461736B00000001
:10152000DD17000810B511A000F034F91EA000F07E
:1015300031F92CA000F02EF939A000F02BF947A0CA
:1015400000F028F954A000F025F962A000F022F97B
:101550006FA000F01FF97DA000F01CF903A000F0BF
:1015600019F989A000F016F910BD00000D0A3D3DE3
:101570003D3D3D3D3D3D3D3D3D3D3D3D3D3D3D3D9B
:101580003D3D3D3D3D3D3D3D3D3D3D3D3D3D3D3D8B
:101590003D3D3D3D3D3D3D3D3D3D3D3D3D3D3D3D7B
:1015A0003D3D3D3D3D3D3D000D0A3D3D3D3D3D3D0B
:1015B0003D3D3D3D28432920434F5059524947481E
:1015C000542032303138204D614C6F6E6757656959
:1015D000203D3D3D3D3D3D3D3D3D3D3D3D3D3D3D58
:1015E0003D3D3D000D0A7C20202020202020202091
:1015F00041524D436F6E74726F6C20446562756723
:10160000202856657273696F6E20312E3029202094
:1016100020202020202020202020202020207C008E
:101620000D0A7C2D2D2D2D636F6D6D616E642D2D3A
:101630002D2D20202020207C2D2D2D2D2D2D2D2DCC
:101640002D2D2D2D66756E6374696F6E2D2D2D2DCC
:101650002D2D2D2D2D2D2D2D2D2D7C000D0A7C2099
:101660006C65647828302D322920307C3120202090
:101670002020207C205455524E204F4E2F4F46465E
:1016800020544845204C454478202020202020200C
:101690002020202020207C000D0A7C20656E6769B8
:1016A0006E657828312D342920616E676C65207C49
:1016B00020414C5445522054484520454E47494E00
:1016C000457820414E474C452020202020202020D6
:1016D00020207C000D0A7C20633A20434845434B80
:1016E00020202020202020202020207C204348452E
:1016F000434B20535441434B2020202020202020C6
:1017000020202020202020202020202020207C009D
:101710000D0A7C20723A2052455345542020202047
:10172000202020202020207C205245534554205446
:1017300048452053595354454D2020202020202037
:10174000202020202020202020207C000D0A7C202A
:101750003F3A2048454C50202020202020202020A7
:101760002020207C20446973706C61792048656C6E
:1017700070204D656E752020202020202020202004
:101780002020202020207C000D0A0D0A3E3E000073
:10179000704700000FB438B50E49D1F8CC004FF0B7
:1017A000FF3103F009F80B4C05A800902046009A81
:1017B000049901F0FBFB002000902046FEF734FD69
:1017C00005462A462146044800F052FB38BC5DF825
:1017D00014FB0000A400002044000240FEB50746B0
:1017E000BCE05F4890F8C800002870D000205C4939
:1017F00081F8C80000215A48B0F8CA2064308154EA
:1018000058A1FEF7FFFC10B1FFF78CFE9DE056A13A
:1018100053486430FEF7F6FC78B172B600BF534807
:10182000006800F4E06052490843001D4F49086019
:10183000BFF34F8F00BF00BFFEE74EA148486430A2
:10184000FEF7E0FC00282FD04BA0FFF7A3FF55A028
:1018500003F0AAF8054602F043FC0446214654A0D2
:10186000FFF798FF5AA003F09FF8054602F038FCF6
:101870000446214659A0FFF78DFF60A003F094F8BD
:10188000054602F02DFC044621465FA0FFF782FFCB
:1018900065A003F089F8054602F022FC04462146C3
:1018A00063A0FFF777FF50E069A12D486430FEF791
:1018B000A9FC00B301AB02AA66A129486430FEF777
:1018C000BBFC022841D1019A12B1012201E042E0A1
:1018D00000221146029AD0B2FFF7C0FC002834D192
:1018E000019808B1012000E0002002465CA00299A6
:1018F000FFF750FF29E062A119486430FEF782FC2F
:1019000018B36B4602AA60A115486430FEF794FC38
:1019100002281AD100210098FFF742F804D35D494C
:101920000098FFF747F800D2FEBD0299C8B20099AF
:10193000FFF726FC48B90098FFF71FF805462A462E
:101940000B4655A00299FFF725FF01205C4908705E
:101950005CA0FFF71FFF0A2002F07EFC41E70000B9
:10196000A40000203F000000720000000CED00E029
:101970000000FA0563000000205461736B4E616D36
:101980006520202020202020202020202020202012
:1019900052656D61696E5461736B20202020202098
:1019A0000D0A000053746172745461736B0000007F
:1019B00053746172745461736B20202020202020A6
:1019C000202020202020202020202025640D0A0017
:1019D00044656275675461736B000000446562750D
:1019E000675461736B20202020202020202020209D
:1019F0002020202020202025640D0A00436D7563DF
:101A00005461736B00000000436D75635461736B28
:101A100020202020202020202020202020202020C6
:101A200020202025640D0A004C65645461736B000E
:101A30004C65645461736B202020202020202020DE
:101A4000202020202020202020202025640D0A0096
:101A50006C6564006C6564256420256400000000EA
:101A60006C65645F6E756D3A256420202020206CC3
:101A700065645F73746174653A25640D0A00000043
:101A8000656E67696E650000656E67696E652564E1
:101A90002025660000003443656E67696E655F6EE1
:101AA000756D3A25642020202020656E67696E657B
:101AB0005F616E676C653A252E32660D0A00000084
:101AC000340000200D0A0D0A3E3E00000548006863
:101AD0004FF47A71B0FBF1F0B0FBF1F002490870FD
:101AE00070470000180000202C0000202DE9F04174
:101AF000024600250026002000230024002791F83C
:101B000003C00CF00F0591F803C00CF0100CBCF1F1
:101B1000000F03D091F802C04CEA050591F800C00F
:101B2000BCF1000F31D0146800202BE04FF0010C05
:101B30000CFA00F3B1F800C00CEA03069E4220D173
:101B400083004FF00F0C0CFA03F7BC4305FA03FCBB
:101B50004CEA040491F803C0BCF1280F06D14FF001
:101B6000010C0CFA00FCC2F814C00AE091F803C0A2
:101B7000BCF1480F05D14FF0010C0CFA00FCC2F883
:101B800010C0401C0828D1D31460B1F800C0BCF1CB
:101B9000FF0F34DD546800202EE000F1080C4FF0F8
:101BA000010808FA0CF3B1F800C00CEA03069E42E3
:101BB00021D183004FF00F0C0CFA03F7BC4305FA58
:101BC00003FC4CEA040491F803C0BCF1280F05D1D2
:101BD00000F1080C08FA0CF8C2F8148091F803C060
:101BE000BCF1480F07D100F1080C4FF0010808FACA
:101BF0000CF8C2F81080401C0828CED35460BDE811
:101C0000F0810000F0B50A460023002400210025E1
:101C100000F00046B6F1004F02D11D4EF16901E01F
:101C20001B4E7168C0F3034583B200F44016B6F54D
:101C3000401F08D121F07061154E766826F070665D
:101C4000134F7E6012E000F48016B6F5801F06D1B7
:101C5000032606FA05F4A14341F0706106E0460D43
:101C6000360103FA06F6B14341F0706122B1460D28
:101C7000360103FA06F6314300F00046B6F1004F94
:101C800002D1034EF16101E0014E7160F0BD000030
:101C9000000001400246002093680B400BB1012078
:101CA00000E0002070470AB1016100E04161704727
:101CB00000BFFEE710B50121042000F05DFB01210B
:101CC000082000F059FB00F0F3F810230322D9029A
:101CD0000F4800F0DCF81023032208210D4800F023
:101CE000D6F81023032219460A4800F0D0F8012242
:101CF000D1030748FFF7D7FF012208210548FFF766
:101D0000D2FF012210210348FFF7CDFF10BD0000D4
:101D100000080140000C014004260024002531E0A9
:101D2000701CC0B20646052803D10026002000F032
:101D30002FF81548007878B1012000F029F8601CD0
:101D4000C0B20446052807D1002401210846FFF748
:101D500085FA00200C4908700C48007878B1022000
:101D600000F016F8681CC0B20546052807D100250A
:101D700001210220FFF772FA002004490870642054
:101D800002F06AFACCE70000400000203400002096
:101D900010B5044624B1012C17D0022C3DD128E007
:101DA0001F4802784FF400411E48FFF77CFF1C4893
:101DB0000078401C1A490870087800EBD07149106F
:101DC000A0EB4101164A117028E01548427808211D
:101DD0001548FFF768FF12484078401C10494870CA
:101DE000487800EBD0714910A0EB41010C4A5170CA
:101DF00014E00B48827810210B48FFF754FF084885
:101E00008078401C06498870887800EBD0714910B2
:101E1000A0EB4101024A917000E000BF00BF10BD7D
:101E20002D00002000080140000C01402DE9FF4F6B
:101E30008BB00C4615461E4618AF97E8800F0094ED
:101E4000019502960397CDF81080CDF81490CDF847
:101E500018A0CDF81CB01D9808901E9809901F98E6
:101E60000A9069460B98FFF726FB0FB0BDE8F08F8C
:101E700070B504460E46154600212046FFF7ECFAE1
:101E8000E660656001212046FFF7E6FA70BDF8B50F
:101E900007460C4615461E46ADF800408DF8025028
:101EA0008DF8036069463846FFF720FEF8BD000054
:101EB00010B50121084600F05FFA01210348FFF741
:101EC000A1FE0021012000F057FA10BD00023000F1
:101ED000F8B504460D4616461F468DF800408DF8AD
:101EE00001508DF802608DF80370684600F0B6F975
:101EF000F8BD2DE9FF4F85B00C4615461E4612AFC2
:101F000097E8800FADF80040ADF80250ADF80460DE
:101F1000ADF80670ADF80880ADF80A90ADF80CA0E9
:101F2000ADF80EB01798ADF810006946059800F0AE
:101F3000B2FA09B0BDE8F08F2DE9FE4307460C4622
:101F400015461E46DDE90A89ADF80040ADF802509D
:101F5000ADF80460ADF806808DF808906946384603
:101F600000F00CFEBDE8FE832DE9FF4F85B00C4666
:101F700016461F4613AD95E8200EDDF84880ADF8F3
:101F80000460ADF80670ADF80880ADF80C90ADF8BF
:101F90000EA0ADF810B01798ADF8120004F00100D3
:101FA00050B12888ADF80A0001A9059800F08AFC14
:101FB0000821059800F0D2FC04F0020050B16888B6
:101FC000ADF80A0001A9059800F0D2FC0821059897
:101FD00000F020FD04F0040050B1A888ADF80A001C
:101FE00001A9059800F024FD0821059800F070FD76
:101FF00004F0080050B1E888ADF80A0001A905987E
:1020000000F070FD0821059800F0AAFD0121059857
:1020100000F048FC0121059800F02CFC09B0BDE857
:10202000F08F2DE9FF4707460C4615461E46DDE9B1
:102030000D9ADDF830800094ADF80450ADF80660DC
:10204000ADF80880ADF80A90ADF80CA069463846A6
:1020500000F0AAFEBDE8FF8700BFFEE77047000062
:102060001CB510A103C9CDE9000105226946302045
:1020700000F0B0F805226946102000F045F8002471
:1020800006E01DF80400A52800D003E0601CC4B2DF
:10209000052CF6DB00BF052C01D001201CBD002063
:1020A000FCE70000A5A5A5A5A500000010B500222D
:1020B00008211348FFF7F7FD052212492A2000F0F6
:1020C00089F80121212000F0A9F80121222000F047
:1020D000A5F82821252000F0A1F82021312000F0CA
:1020E0009DF80F21262000F099F80F21202000F004
:1020F00095F8012208210248FFF7D5FD10BD000028
:10210000000801402D4E0008F8B504460E4615465D
:10211000002210210B48FFF7C6FD01232246694625
:10212000094800F015FB2B46FF223146064800F017
:102130000FFB012210210348FFF7B5FD9DF80000B9
:10214000F8BD0000000801400030014038B50446E9
:10215000002210210B48FFF7A6FD01232246694605
:10216000094800F0F5FA0123FF226946064800F00D
:10217000EFFA012210210348FFF795FD9DF80000BA
:1021800038BD0000000801400030014070B5054630
:102190004FF400610E48FFF77DFD08B1012070BDCE
:1021A0000720FFF7D3FF04462146272000F036F82A
:1021B00004F0400050B1202229466120FFF7A4FF1F
:1021C000FF21E22000F02AF80020E8E70120E6E7FE
:1021D000000C0140F8B504460D46164600221021B9
:1021E0000B48FFF760FD012322466946094800F0CD
:1021F000AFFA33462A460849064800F077FA01222A
:1022000010210348FFF74FFD9DF80000F8BD0000C6
:102210000008014000300140D801002038B50446D4
:102220000D46002210210B48FFF73DFD01232246F9
:102230006946094800F08CFA01232A466946064897
:1022400000F086FA012210210248FFF72CFD9DF8CC
:10225000000038BD000801400030014070B5002189
:1022600000230F22C47804B3154C246804F4E064FE
:10227000C4F5E064210AC1F10403CA40447804FAB9
:1022800003F184781440214309010E4C0678A155CE
:10229000047804F01F050124AC4005786D11AD00F1
:1022A00005F1E025C5F8004109E0047804F01F05B8
:1022B0000124AC40044D0678761145F8264070BDE7
:1022C0000CED00E000E400E080E100E002490143A1
:1022D000024A1160704700000000FA050CED00E0B2
:1022E00010B50121042000F047F80121082000F07A
:1022F00043F81023032208210D48FFF7C8FD1023DF
:10230000032219460A48FFF7C2FD0423032259029B
:102310000848FFF7BCFD00F051F9002208210448ED
:10232000FFF7C1FC012210210148FFF7BCFC10BDE2
:1023300000080140000C014029B1064A52690243DD
:10234000044B5A6104E0034A52698243014B5A61CB
:10235000704700000010024029B1064AD2690243CA
:10236000044BDA6104E0034AD2698243014BDA612B
:10237000704700000010024029B1064A92690243EA
:10238000044B9A6104E0034A92698243014B9A61CB
:10239000704700000010024030B5002100220024E8
:1023A00000232D4D6D6805F00C0121B1042905D0E5
:1023B000082923D105E0294D056022E0274D05605D
:1023C0001FE0254D6D6805F47012234D6D6805F40E
:1023D0008034022505EB92421CB9214D554305601E
:1023E0000BE01D4D6D6805F400351DB11C4D5543C6
:1023F000056002E0194D5543056002E0174D056088
:1024000000BF00BF144D6D6805F0F0010909154DBE
:102410006B5C0568DD4045600F4D6D6805F4E0615B
:10242000090A104D6B5C4568DD4085600A4D6D689A
:1024300005F46051C90A0B4D6B5C4568DD40C56011
:10244000054D6D6805F44041890B074D6B5CC5680F
:10245000B5FBF3F5056130BD0010024000127A00B3
:1024600000093D00040000201400002021B1028872
:1024700042F04002028004E002884FF6BF731A4027
:10248000028070471AB183880B43838002E08388FF
:102490008B438380704710B50022028802F44152BA
:1024A0000B884C8823438C882343CC8823430C8996
:1024B00023434C8923438C892343CC8923431A43E8
:1024C0000280838B4FF2FF74234083830B8A038245
:1024D00010BD10B500F002F810BD00000CB50020D2
:1024E000019000903348006840F480303149086022
:1024F00000BF3048006800F4003000900198401C94
:102500000190009818B90198B0F5A06FF1D1294851
:10251000006800F4003010B10120009001E00020BC
:1025200000900098012843D12348006840F0100033
:10253000214908600846006820F00300086008464A
:10254000006840F0020008601A4840681949486075
:102550000846406848600846406840F4806048602B
:102560000846406820F47C1048600846406840F403
:10257000E81048600846006840F08070086000BFBE
:102580000C48006800F000700028F9D00948406845
:1025900020F00300074948600846406840F0020008
:1025A000486000BF0348406800F00C000828F9D1DB
:1025B0000CBD0000001002400020024000B589B0B0
:1025C00001210420FFF7D8FE01210803FFF7D4FE04
:1025D00001210846FFF7B0FE1823032220213F48BF
:1025E000FFF755FC0423032240213C48FFF74FFC32
:1025F0001823032280213948FFF749FC07200021D6
:1026000018224FF40073CDE903210091CDE90113A5
:1026100005900B464FF482723148FFF76AFC0122A5
:1026200002212F48FFF72EFF012211462C48FFF709
:1026300029FF01212A48FFF719FF00204FF480519C
:102640000490CDE90501802107900090CDE90101BA
:102650001023024622490C3103902248FFF7E6FB83
:1026600000204FF480510490CDE9050180210790AE
:102670000090CDE901010346024619490C3103904F
:1026800018481438FFF7D2FB0122022115481438EC
:10269000FEF708FF0123002206210C20FFF718FC9B
:1026A00003220021012001F039FF0F49C1F8C800C1
:1026B0000846D0F8C80030B100231A46D1F8C80047
:1026C000194601F089FF03220021012001F026FFB5
:1026D0000549C1F8CC0009B000BD00000008014068
:1026E0000030014030000240740100202DE9F0412B
:1026F00004460F4615461E461248844220D1124910
:10270000D1F8C8004FF0FF3102F056F83246394692
:102710000E48FFF7ADFB324629460C481430FFF750
:10272000A7FB0949D1F8CC004FF0FF3102F044F883
:10273000054900231A46D1F8C800194601F04CFF9C
:10274000BDE8F08100300140740100201C0002400F
:102750002DE9F04105460F4616461C4616488542AF
:1027600028D1002003E015490E54411CC8B2A042F4
:10277000F9DB1249D1F8C8004FF0FF3102F01CF824
:10278000224639460E48FFF773FB22460B490C4898
:102790001430FFF76DFB0949D1F8CC004FF0FF3141
:1027A00002F00AF8054900231A46D1F8C800194674
:1027B00001F012FFBDE8F0810030014074010020FB
:1027C0001C00024001F0D6FCFEF794FEFEF7E8FD87
:1027D00001F0EAFC02E0642001F03EFDFBE70000AE
:1027E00010B500BF502080F31188BFF34F8FBFF3A7
:1027F0006F8F00BF02F028F918B14FF080500449E4
:10280000086000BF002080F3118800BF10BD0000E9
:1028100004ED00E010B51348006840F001001149D4
:10282000086008464068104908400E49486008465C
:1028300000680E4908400B4908600846006820F40B
:10284000802008600846406820F4FE0048604FF48D
:102850001F008860FFF73DFE4FF0006004490860EC
:1028600010BD0000001002400000FFF8FFFFF6FE60
:1028700008ED00E021B1028842F08002028004E00D
:1028800002884FF67F731A400280704721B1028898
:1028900042F00102028004E002884FF6FE731A4003
:1028A0000280704731B1B0F8442042F40042A0F8F1
:1028B000442005E0B0F84420C2F30E02A0F8442002
:1028C0007047000070B5002400220023058C4FF6ED
:1028D000FE7635400584028C8388048B4FF68F7515
:1028E0002C40B51E2C400D882C43751E2A400D89A6
:1028F0002A434D882A43144DA8420BD0134DA842B9
:1029000008D0134DA84205D0124DA84202D0124D56
:10291000A84213D14FF6F7752A404D892A434FF646
:10292000FB752A408D882A434FF6FF652B404FF6F2
:10293000FF552B408D892B43CD892B438380048306
:10294000CD888586028470BD002C01400034014092
:102950000040014000440140004801400A46002177
:10296000018B4FF6F7731940114301837047000044
:1029700070B5002400220023058C4FF6EF76354019
:102980000584028C8388048B48F6FF752C404FF633
:10299000FF452C400D884FF6FF7606EA05252C43AF
:1029A0004FF6DF752A400D8906EA05152A434D8842
:1029B00006EA05152A43154DA84202D0144DA84237
:1029C0001DD14FF67F752A404D894FF6FF7606EAF6
:1029D00005152A434FF6BF752A408D8806EA05156E
:1029E0002A434FF6FF352B404FF2FF752B408D8960
:1029F00006EA85052B43CD8906EA85052B438380AE
:102A00000483CD880587028470BD0000002C01403E
:102A1000003401400A460021018B4FF2FF73194038
:102A20004FF6FF7303EA0223194301837047000046
:102A300070B5002400220023058C4FF6FF66354058
:102A40000584028C8388848B4FF68F752C404FF65B
:102A5000FC752C400D882C434FF6FF552A400D89FC
:102A60004FF6FF7606EA05252A434D8806EA052536
:102A70002A43154DA84202D0144DA8421DD14FF251
:102A8000FF752A404D894FF6FF7606EA05252A4351
:102A90004FF6FF352A408D8806EA05252A434EF673
:102AA000FF752B404DF6FF752B408D8906EA051505
:102AB0002B43CD8906EA05152B4383808483CD887B
:102AC0008587028470BD0000002C01400034014065
:102AD0000A460021818B4FF6F77319401143818319
:102AE0007047000070B5002200230024058C4EF6CC
:102AF000FF7635400584038C8488828B48F6FF7509
:102B00002A404FF6FF452A400D884FF6FF7606EA29
:102B100005252A434DF6FF752B400D8906EA05353C
:102B20002B434D8806EA05352B430B4DA84202D0B6
:102B30000A4DA84208D14BF6FF752C408D894FF6FF
:102B4000FF7606EA85152C4384808283CD88A0F821
:102B50004050038470BD0000002C0140003401404F
:102B60000A460021818B4FF2FF7319404FF6FF7325
:102B700003EA022319438183704700000022028880
:102B80001D4B98420ED01D4B98420BD0B0F1804F98
:102B900008D01B4B984205D01A4B984202D01A4BD2
:102BA000984204D14FF68F731A404B881A43174B43
:102BB000984207D0164B984204D04FF6FF431A4074
:102BC000CB881A4302808B8883850B8803850A4B48
:102BD00098420BD0094B984208D00E4B984205D032
:102BE0000D4B984202D00D4B984201D10B7A0386CF
:102BF0000123838270470000002C01400034014013
:102C00000004004000080040000C0040001000409C
:102C100000140040004001400044014000480140D1
:102C200038B540F22441224800F06EF8F8B120484F
:102C300000881F48001D0088C4B20A2C17D101204B
:102C40001C4981F8C80000211B48FEF705FC1A4802
:102C5000FEF70EFCC0F164001649A1F8CA0064201A
:102C600015495839C86501211348FEF7F5FB40F2B4
:102C700026610F4800F048F8C0B140F226610C48C8
:102C800000F01EF80B48D0F8CC0078B10949D1F813
:102C9000CC00694601F046FD009838B14FF08050F5
:102CA00006490860BFF34F8FBFF36F8F38BD000038
:102CB00000380140A40000205800024004ED00E06C
:102CC00010B50022002340F66A14A14200D100BFD3
:102CD0000A1201249440A3B2DC43048010BD21B148
:102CE000828942F40052828104E082894DF6FF73AA
:102CF0001A40828170471AB1838A0B43838202E0B3
:102D0000838A8B438382704770B502460024002378
:102D10000025002040F66A16B14200D100BFC1F381
:102D2000421501F01F03012606FA03F3012D02D11B
:102D30009689334006E0022D02D1168A334001E025
:102D4000968A33400C12012606FA04F416883440A1
:102D500013B10CB1012000E0002070BDF0B50346B6
:102D6000002400260025002040F66A17B94200D151
:102D700000BF1846C1F3421401F01F06012707FAED
:102D800006F5012C01D10C3004E0022C01D11030E9
:102D900000E014301AB107682F43076002E00768AB
:102DA000AF430760F0BD00002DE9F04786B005464F
:102DB0000E460024A24600BFA1460027B08900B1FC
:102DC00000BF2F462C8A4CF6FF700440F088044365
:102DD0002C82AC894EF6F3100440B0883189084348
:102DE000718908430443AC81AC8A4FF6FF4004402C
:102DF000B0890443AC8201A8FFF7CEFA1F4887428E
:102E000002D1DDF810A001E0DDF80CA0A88900F4E3
:102E1000004040B10AEBCA0000EB0A1031684900DB
:102E2000B0FBF1F807E00AEBCA0000EB0A103168CA
:102E30008900B0FBF1F86420B8FBF0F00401200930
:102E4000642101FB1089A88900F4004040B13220C0
:102E500000EBC900B0FBF1F000F00700044308E00C
:102E6000322000EB09106421B0FBF1F000F00F00FC
:102E700004432C8106B0BDE8F08700000038014013
:102E800000BFFEE700B589B001210420FFF774FA06
:102E900001218803FFF770FA01210846FFF74CFA79
:102EA000182303224FF400713C48FEF7F0FF04237F
:102EB000032219023948FEF7EAFF00200C21CDE970
:102EC0000001034602464FF4E13102903448FFF717
:102ED000A8F8012240213248FFF70DFF012280218E
:102EE0002F48FFF708FF012240F224412C48FFF74A
:102EF00035FF012240F226612948FFF72FFF012309
:102F0000002205212520FEF7E3FF01212448FFF7D9
:102F1000E6FE00204FF480510490CDE905018021A8
:102F200007900090CDE9010110231E4A1C49091D9C
:102F300003901D48FEF77AFF00204FF480512022B5
:102F4000CDE90402CDE9061080216423CDE90030EB
:102F50000346144A6432CDE902101149091D124892
:102F60001430FEF763FF01210F481430FEF774FAA6
:102F700003220021012001F0D1FA0A49C1F8CC0056
:102F80000846D0F8CC0030B100231A46D1F8CC0066
:102F9000194601F021FB09B000BD00000008014006
:102FA00000380140A40000204400024037B5144618
:102FB0000846064B6A46214600F0E4F80446694696
:102FC000002000F076FC20463EBD0000B33800082B
:102FD00002E008C8121F08C1002AFAD170477047E2
:102FE000002001E001C1121F002AFBD17047000040
:102FF0002DE9FF5F82B00021DDE90430020DDDF82C
:1030000040B0034318D044F61050A2F2FF324243BE
:103010001514119801281FD0A5EB0B00401C5FEA86
:10302000000A4FF000064E4FDFF83891B046504688
:1030300015D5CAF1000413E0119801244AA3012810
:1030400001D16FEA0B010298119AC0E90031C0E981
:10305000024206B0BDE8F09FCBF10000DFE7044676
:103060000021404A491842EB0450CDE9001012E01B
:10307000E00707D032463B4640464946FDF7BBFDD8
:103080008046894632463B4610461946FDF7B3FD59
:1030900006460F466410002CEAD1DDE90401DDE9A3
:1030A0000023BAF1000F06DAFDF7A5FD42464B46B4
:1030B000FDF7A1FD05E0FDF7D8FB42464B46FDF7C5
:1030C000D4FB04460E460022284BFDF72BFE03D806
:1030D0004FF0FF30014607E00022254B20463146E5
:1030E000FDF71CFBFDF705FE102409E0002C0ADBB0
:1030F0000A220023FDF77EFC039B30321A55641E22
:1031000050EA0102F2D1641C039AC4F11103144481
:10311000119A012A03D0012208430DD10AE0084385
:1031200004D000204FF0110B119072E7A3EB0B05B8
:103130006D1E0DE05B4504DD4FF0000205F1010559
:1031400004E003DA4FF00002A5F10105002AECD0FB
:1031500002981199C0E90231C0E9004579E7000001
:10316000000014400000F03F300000000000F04379
:103170000000E03F30380A2801D2012070470020CB
:10318000704700002DE9FF4F95B09B4689460646E3
:1031900000250FE2252877D100242746F84A01218F
:1031A000059400E0044316F8013F203B01FA03F0C8
:1031B0001042F7D130782A2811D06FF02F033078E1
:1031C000A0F13002092A16D8059A44F0020402EB55
:1031D000820203EB42021044761C0590EFE759F897
:1031E000042B0592002A03DA504244F4005405905F
:1031F00044F00204761C30782E2816D116F8010F00
:1032000044F004042A280DD06FF02F023078A0F18A
:103210003003092B09D807EB870302EB4303C718D8
:10322000761CF3E759F8047B761C30786C280FD0B5
:1032300006DC4C2817D068280DD06A2814D104E089
:10324000742810D07A280FD10DE044F400140AE05D
:1032500044F4801401E044F440147278824202D1B4
:1032600004F58014761C761C307866280BD013DCAD
:10327000582877D009DC002875D04528F6D0462894
:10328000F4D047281AD19DE118E0632835D064288E
:1032900079D0652812D195E1702873D008DC6728B1
:1032A000F1D069286FD06E280DD06F2806D1B5E017
:1032B00073282CD0752875D0782874D05A46179961
:1032C00090476D1C75E1C4F30250022809D0032811
:1032D0000DD0D9F8001004280DD00D6009F10409B3
:1032E00067E1D9F80010EA17C1E90052F6E7D9F80A
:1032F00000100D80F2E70D70F0E719F8041B8DF84F
:10330000001000208DF80100EA46012003E059F882
:1033100004AB4FF0FF3061074FF0000102D40DE025
:1033200008F101018846B9420FDA8045F8DB1AF846
:1033300008100029F4D108E008F101018846814213
:10334000FADB1AF808100029F6D105985B46A0EBC5
:10335000080721463846179A00F094FA284400EBF3
:10336000080507E04DE029E10DE01AF8010B5A4687
:1033700017999047B8F10108F7D25B4621463846C5
:10338000179A13E142E00A220092C4F302524FF06E
:10339000000A022A08D059F804CB032A4FEAEC713C
:1033A0000AD00DE029E02AE009F1070121F0070227
:1033B000F2E802C1914609E00FFA8CFC4FEAEC7189
:1033C000042A03D14FFA8CFC4FEAEC71002907DA8A
:1033D0000A460021DCF1000C61EB02012D2202E023
:1033E000220504D52B228DF80420012203E0E207F8
:1033F00001D02022F7E7904659E00A2102E010228E
:103400000DE010214FF0000A00910BE010224FF068
:10341000000A44F004040827009203E008224FF059
:10342000000A0092C4F30252022A05D059F804CBD4
:103430000021032A08D009E009F1070121F0070261
:10344000F2E802C1914605E01FFA8CFC042A01D182
:103450000CF0FF0C4FF00008220728D5702806D08A
:10346000009B83F0100353EA0A0305D00EE04022CC
:103470008DF80420012208E05CEA010206D0302227
:103480008DF804208DF8050002229046009B83F001
:10349000080353EA0A030AD15CEA010201D1620778
:1034A00005D530228DF804204FF001087F1E5828E2
:1034B00004D034A003900EA802900DE036A0F9E7E6
:1034C00053466046009AFDF795FA84460398825C5D
:1034D0000298401E029002705CEA0100F0D102984E
:1034E00006A9081A00F1200A600702D524F48034E6
:1034F00000E00127574502DDA7EB0A0000E00020AD
:1035000000EB0A01009005984144401A0590E00341
:1035100006D45B462146179A059800F0B3F9054496
:10352000002706E001A85A46C05D179990476D1C18
:103530007F1C4745F6DBE0030CD55B462146179A16
:10354000059800F09FF9054404E030205A46179989
:1035500090476D1C0099481E00900029F5DC08E09A
:10356000029802995A460078491C0291179990478F
:103570006D1CBAF10001AAF1010AF1DC65E100005D
:103580000928010030313233343536373839616239
:1035900063646566000000003031323334353637FD
:1035A00038394142434445460000000000F058F9D4
:1035B0000544761C307800287FF4ECAD19B028461D
:1035C000BDE8F08F620700D4062709F1070222F058
:1035D000070CFCE80223E14603F000485FEA080C10
:1035E00002D00FF2702C0DE05FEA045C02D50FF2FE
:1035F000682C07E05FEAC47C02D00FF2602C01E087
:10360000AFF2700C4FF0FF3823F00043CDF850C0FC
:1036100065280CD006DC452809D046281DD047284F
:103620003DD13DE0662818D067287ED138E00021E2
:10363000112F01DB112000E0781CCDE9000106A963
:103640000EA8FFF7D5FCDDE90F010E9A03910021CA
:10365000009207F1010A04914DE04FF000400097FD
:10366000CDE9011006A90EA8FFF7C2FCDDE90F02A3
:1036700003920E9B11990022DDF80CA00093049296
:1036800011B9791C00EB010AB7EB0A0004D4C0F1B0
:10369000FF3007F1010A0490AAEB0700019044E013
:1036A000012F00DA01270021112F01DD112000E098
:1036B0003846CDE9000106A90EA8FFF799FCDDE91F
:1036C0000F010E9A0391002104910092BA4621073E
:1036D0000CD40399514500DA8A46BAF1010F05DD91
:1036E000009AAAF10101515C302908D0B84202DAEF
:1036F00010F1040F06DA0121CDE9011015E0AAF15D
:103700000101E9E7002805DC049901440491AAEBD2
:10371000000102E0411C514500DD8A460499401A2F
:10372000401C01904FF000400290200704D4019803
:10373000504501DBCDF8048000208DF84F00029841
:103740000DF14F07B0F1004F25D02B200E900298BD
:103750004FF0020800280CDA404202902D200E9013
:1037600007E00A210298FDF72FF93031029007F89F
:10377000011DB8F10001A8F10108F2DC029800284F
:10378000EFD1791E0E980870307800F0200040F0DC
:10379000450007F8020D12A8C01B00F10708149895
:1037A000007800B1012000EB0A01019801EBE07103
:1037B00005984144401A401E0590E00306D45B463C
:1037C0002146179A059800F05DF805441498007892
:1037D00018B15A46179990476D1CE00324D55B46F3
:1037E0002146179A059800F04DF805441CE004980E
:1037F000002807DBDDE90301884203DD0098405C17
:10380000179901E0179930205A469047049805F11E
:103810000105401C04900198401E019004D12E2007
:103820005A46179990476D1CBAF10001AAF1010A96
:10383000DDDC05E017F8010B5A46179990476D1C1F
:10384000B8F10001A8F10108F4DC5B462146179AA3
:103850000598ABE62D0000002B00000020000000C2
:103860002DE9F041044600251E461746880404D47D
:1038700005E039462020B0476D1C641EF9D5284666
:10388000BDE8F0812DE9F041044600251E46904632
:10389000C80301D5302700E02027880404D505E0BF
:1038A00041463846B0476D1C641EF9D52846BDE830
:1038B000F0810A68531C0B60107070471CB54FF400
:1038C0004070FEF703FDFEF701F9FDF7EDFC074838
:1038D000012100238022CDE9001005A1074801F055
:1038E00033F800F055FD00BFFEE7000000000020A7
:1038F00053746172745461736B000000C527000833
:103900002DE9F04105460E461C4807681C48006832
:10391000001D00F0D1FB50B91948006890F82C1038
:103920000120884017490968814316480160681CD6
:1039300038B936B112480168091D134800F00EFC71
:103940001AE07C190E4800684460BC4207D20C485B
:103950000168091D0D48006800F0E6FB0CE008480E
:103960000168091D0A48006800F0DEFB094800688C
:10397000844201D207480460BDE8F081580000206D
:10398000440000205C000020940400204C00002033
:10399000480000207400002010B5044600F0EAFB47
:1039A00024480068401C234908602348006840B947
:1039B000214804600846006801280DD100F070F924
:1039C0000AE01E48006838B91B480068C06AE16A0E
:1039D000884201D81848046019480068401C1849FA
:1039E000086008460068A06494F82C100120884004
:1039F00014490968084313490860E16A01EB810131
:103A0000114A02EB8100211D00F0A8FB00F0CCFB65
:103A10000A48006868B108480068C06AE16A8842DC
:103A200007D24FF0805009490860BFF34F8FBFF3B2
:103A30006F8F10BD54000020440000206000002063
:103A4000700000205C0000206402002004ED00E013
:103A500010B516E000F08EFB0C48C068C468201D4D
:103A600000F02AFB0A480068401E0949086009481E
:103A70000068401E0749086000F096FB204600F0F1
:103A80004AF8044800680028E4D110BD80040020F2
:103A900054000020500000202DE9F04104460F465C
:103AA00015464FF00008A66B206C48B92068002826
:103AB0002CD1A06801F058F880460020A06025E0D5
:103AC0007DB93946226C6068FCF778FB216C606830
:103AD00008446060D4E90101884217D3206860601F
:103AE00014E03946226CE068FCF768FB216CE06862
:103AF000411AE1602168E068884203D2216CA06825
:103B0000411AE160022D01D106B1761E701CA0633E
:103B10004046BDE8F08110B50446206B00F054FB30
:103B2000204600F051FB10BD01464A6A22B10A6BE3
:103B30001268C2F1180000E00020704730B54FF461
:103B40004053174800F007042CB1C01D20F00700B7
:103B5000134C041B1B1B0246124C22600024114D07
:103B60006C60D018083820F007000F4C206000244B
:103B70000D4D2D686C600C4D2D682C601146441A5B
:103B80004C60094C24680C60084D4C682C60084D52
:103B90004C682C604FF00044064D2C6030BD000096
:103BA000A804002080000020880000209000002051
:103BB0008C0000209400002000BFFFF749FF06485A
:103BC00000680128F9D94FF0805004490860BFF31C
:103BD0004F8FBFF36F8FF0E76402002004ED00E029
:103BE0002DE9F04106460D4617469846069C0DB94C
:103BF000246000E02760E66325640121204600F090
:103C0000ABFC84F850800020A064BDE8F0812DE971
:103C1000F05F81460F4690469A460A9E0C9C4FEAFA
:103C20008801A522206BFCF7DBFAA8F10100216BCB
:103C300001EB800B2BF0070B002507E0795D04F109
:103C400034004155785D00B902E06D1C142DF5D3A8
:103C500000BF002147200155182E00D31726E66229
:103C6000266500206065201D00F05BFA04F1180055
:103C700000F057FA2461C6F11800A06164620020C8
:103C8000A06584F85C0052464946584600F002FAA6
:103C900020600B9808B10B980460BDE8F09F00000D
:103CA00010B5002407E004EB84010F4A02EB810009
:103CB00000F02AFA641C182CF5D30C4800F024FA02
:103CC0000B4800F021FA0B4800F01EFA0A4800F0F9
:103CD0001BFA0A4800F018FA044809490860044829
:103CE0000849086010BD0000640200204404002060
:103CF000580400206C04002080040020940400205C
:103D0000480000204C00002010B50146164800E095
:103D1000006803688B42FBD30246436813448B421E
:103D200004D143684C682344436001460A464B680B
:103D300013440468A34211D10C4C03682468A342C5
:103D400008D04B680468646823444B6003681B68B0
:103D50000B6005E0054B1B680B6001E003680B601E
:103D6000884200D0016010BD800000208800002043
:103D700070B5054600F0FEF9A86B08B9012400E013
:103D8000002400F011FA204670BD70B5054600F021
:103D9000F1F9A86BE96B884201D1012400E000240D
:103DA00000F002FA204670BD2DE9F3410D4600985F
:103DB000846C0027A06BA06BE16B88421BD294F946
:103DC00045602A4669462046FFF766FE0746701C96
:103DD00060B9606A08B9012000E0002050B904F120
:103DE000240000F06BFF28B1012703E0701C40B2F3
:103DF00084F8450000BF3846BDE8FC810A490968DF
:103E0000096809B9012100E0002121B14FF0FF311B
:103E1000064A116006E004490968C968C868034A8F
:103E200041681160704700004800002074000020C5
:103E30002DE9F04302460D460027106800284CD0BB
:103E40001046D0F80480D8F80480C0F8048000F14F
:103E50000808D0F80490C14505D1D0F80480D8F8FE
:103E60000480C0F80480D0F80480D8F80C6000BF4B
:103E70001046D0F80480D8F80480C0F8048000F11F
:103E80000808D0F80490C14505D1D0F80480D8F8CE
:103E90000480C0F80480D0F80480D8F80C104FF0EB
:103EA000000C002311E001F13400C45CE85CA04286
:103EB00002D04FF0010C03E014B90F464FF0010C93
:103EC000BCF1000F00D002E05B1C142BEBD300BF51
:103ED00007B101E0B142CBD100BF3846BDE8F08365
:103EE0000246002101E0521C491C1078A528FAD096
:103EF000890888B2704700BF502080F31188BFF353
:103F00004F8FBFF36F8F00BF00BFFEE770B5044651
:103F100000F030F994F945501AE0A06C38B1002156
:103F20002046FFF741FF88B100F0C0F90EE0606A5B
:103F300008B9012000E0002038B904F1240000F0A5
:103F4000BDFE18B100F0B2F900E003E0681E45B212
:103F5000002DE2DC00BFFF2084F8450000F024F9CA
:103F600000F008F994F9445010E0206908B90120E4
:103F700000E0002048B904F1100000F09FFE08B1F5
:103F800000F094F9681E45B200E001E0002DECDC81
:103F900000BFFF2084F8440000F006F970BD000067
:103FA0002DE9F04105464FF0000800F025FA2C48B5
:103FB000006808B9FFF7C2FD2A48006828400028B9
:103FC00048D14DB1083505F0070028B105F00700CC
:103FD000C0F10800054400BF002D3BD02248006816
:103FE000854237D8214E3046046801E026462468D1
:103FF0006068A84202D220680028F7D118480068FB
:10400000844227D0306800F108082068306060687A
:10401000401B102807D967196068401B78606560ED
:104020003846FFF771FE104960680968081A0E49A2
:104030000860084600680E490968884203D20A48A9
:1040400000680B49086007496068096808436060B8
:104050000020206000F072FE4046BDE8F0810000C4
:1040600088000020940000208C00002080000020A8
:10407000900000200648006830B10549096801F148
:104080005400496D491C01600148006870470000F8
:1040900044000020001F4FF080730360001F21F0D8
:1040A00001030360001F034B0360143802602038D3
:1040B00070470000F73E000801460A69D1E9013067
:1040C0009860D1E9010358605068884201D188683E
:1040D0005060002008611068401E10601068704732
:1040E0002DE9F041044614B90648006800E0204676
:1040F00007463D6B2846FFF7F3FE06463046BDE80F
:10410000F08100004400002000F1080141604FF000
:10411000FF31816000F10801C1600161002101608F
:10412000704700210161704710B502460B685C1CA6
:104130000CB9106907E002F1080000E0406844682B
:1041400024689C42FAD944684C604C68A16088603D
:1041500041600A611468641C146010BD42684A60C2
:1041600093688B60936859609160086103685B1C79
:104170000360704700BF502080F31188BFF34F8F5A
:10418000BFF36F8F00BF06480068401C04490860F9
:1041900008460068012801D1024800687047000005
:1041A0009800002004ED00E006480068401E054924
:1041B00008600846006820B9002080F3118800BF1D
:1041C00000BF70479800002070B506463546D6B14E
:1041D000083D2C460C4960680968084098B1206881
:1041E00088B90949606809688843606000F004F98B
:1041F0000649606809680844044908602046FFF7DA
:1042000083FD00F09BFD70BD940000208C00002019
:1042100000204FF0E02108618861064800684FF4F3
:104220007A71B0FBF1F0401E4FF0E02148610720A9
:10423000086170471800002070B5FBF7A9FF04461D
:10424000102C04D304F1E02090F8F05300BF014893
:10425000006870BD0CED00E070B50446002554B157
:104260000A48006800F0C8F800212046FFF748FB24
:1042700000F064FD05463DB94FF0805004490860E8
:10428000BFF34F8FBFF36F8F70BD00007C00002025
:1042900004ED00E0034909680160034909684160D1
:1042A000704700006C0000205800002001200149E8
:1042B000086070476800002070B505460C46054848
:1042C000016818312846FFF72FFF01212046FFF72C
:1042D00017FB70BD440000202DE9F04706460F464D
:1042E00034464FF00109002E49D0206DB84201D26A
:1042F0003D4600E0256DE06AA84240D0606D01288F
:104300003DD120480068D4F82C80E562A06900F017
:10431000004010B9C5F11800A06108EB88011A4AE5
:1043200002EB81016069884201D1012000E0002098
:1043300028B3201DFFF7C0FE78B9E06A00EB8000CB
:10434000114951F8200040B994F82C100120884000
:104350000E49096881430D48016094F82C10012032
:1043600088400A490968084308490860E16A01EB86
:104370008101054A02EB8100211DFFF7EFFEBDE838
:10438000F087000044000020640200205C00002050
:104390001CB5124800210B468222CDE9001010A165
:1043A000114800F0D1FA0446012C15D100BF50206D
:1043B00080F31188BFF34F8FBFF36F8F00BF4FF0B3
:1043C000FF300A49086001200949086000200949B6
:1043D000086000F04FF800E000BF1CBD780000202E
:1043E00049444C4500000000B93B0008740000201F
:1043F000600000205800002002480068401C01496D
:10440000086070477C0000201548006818B1012042
:104410001449086022E00020124908601248006830
:10442000B0FA80F0C0F11F0101EB81000F4A52F891
:10443000200001EB81020D4B03EB820042685268C1
:10444000426000F108024368934202D14268526818
:1044500042604268D268064B1A6000BF7047000095
:104460007C000020680000205C0000206402002026
:10447000440000201CB52448014609780191FF2121
:10448000024611700146097800919DF800109DF8D0
:1044900000109DF8001001F050011C4A1170072116
:1044A0001B4A116009E01A490968491E184A11603F
:1044B0009DF800104906090E00919DF8001001F0CA
:1044C00080018029EFD0124909680902104A116061
:1044D0001146098801F4E06111600B4A01991170DD
:1044E0000C48006840F470000A49086008460068FB
:1044F00040F070400860FFF78BFE0020064908601E
:10450000FBF710FE00201CBD00E400E09C00002032
:10451000A000002020ED00E0980000202DE9F843E5
:1045200007460D4690460DB9002601E007FB05F64B
:1045300006F15400FFF734FD04464CB1A14609F1E1
:10454000540943464A46294638460094FFF748FB3B
:104550002046BDE8F883000070B505460E462C469F
:10456000FFF708FED4E90F12206801FB0200A060EB
:104570000020A06320686060E06B401E226C216810
:1045800000FB0211E160FF2084F8440084F845003C
:104590009EB9206908B9012000E00020A8B904F103
:1045A000100000F08BFB80B14FF08050094908608B
:1045B000BFF34F8FBFF36F8F07E004F11000FFF7D9
:1045C000A3FD04F12400FFF79FFDFFF7EDFD01209F
:1045D00070BD000004ED00E02DE9FF4782B0074602
:1045E00088461D464FF000093C4600F01DFA00BF0A
:1045F000FFF7C0FDA06BE16B884201D3022D3FD1D4
:10460000D4F838A02A4641462046FFF745FA064628
:10461000A06C90B1022D02D1BAF1000F2AD1294627
:104620002046FFF7C1FB28B34FF080503C4908609B
:10463000BFF34F8FBFF36F8F1CE0606A08B9012092
:1046400000E0002068B904F1240000F037FB88B1D5
:104650004FF0805032490860BFF34F8FBFF36F8F28
:1046600008E03EB14FF080502D490860BFF34F8FF6
:10467000BFF36F8FFFF798FD012006B0BDE8F0870C
:10468000049818B9FFF790FD0020F6E7B9F1000F84
:1046900004D16846FFF7FEFD4FF00109FFF784FDE6
:1046A000FFF7AAFEFFF766FD94F94400401C10B91D
:1046B000002084F8440094F94500401C10B9002003
:1046C00084F84500FFF770FD04A9684600F00EF974
:1046D000F8B92046FFF759FBA8B104F1100004997E
:1046E000FFF7EAFD2046FFF711FC00F027FB00284A
:1046F0007FF47EAF4FF0805009490860BFF34F8FC1
:10470000BFF36F8F74E72046FFF700FC00F016FB45
:104710006EE72046FFF7FAFB00F010FB0020ACE745
:1047200004ED00E02DE9F04706460D463446FFF75C
:1047300083FD00BF5021EFF3118081F31188BFF397
:104740004F8FBFF36F8F00BF8046D4F83890E06B77
:10475000484528D994F945A009F10100A0630AF160
:104760000100C8B9A06C40B100212046FFF71CFB36
:10477000B8B1B5B10120286013E0606A08B9012022
:1047800000E0002068B904F1240000F097FA40B17D
:104790003DB10120286004E00AF1010040B284F834
:1047A0004500012700E0002700BF88F3118800BF03
:1047B0003846BDE8F08700002DE9F34182B0054698
:1047C00000272C46B84600F02FF900BFFFF7D2FCB7
:1047D000A66BFEB1701EA063206810B9FFF74AFCFB
:1047E000A060206908B9012000E0002060B904F150
:1047F000100000F063FA38B14FF080503A49086079
:10480000BFF34F8FBFF36F8FFFF7CEFC012004B0D3
:10481000BDE8F081039818B9FFF7C6FC0020F6E761
:104820001FB96846FFF736FD0127FFF7BDFCFFF70C
:10483000E3FDFFF79FFC94F94400401C10B90020F1
:1048400084F8440094F94500401C10B9002084F815
:104850004500FFF7A9FC03A9684600F047F840BBF4
:104860002046FFF785FAF0B1206838B9FFF782FCDF
:10487000A06800F0BFF98046FFF796FC04F1240021
:104880000399FFF719FD2046FFF740FB00F056FAA9
:1048900000289BD14FF0805013490860BFF34F8F21
:1048A000BFF36F8F92E72046FFF730FB00F046FA28
:1048B0008CE72046FFF72AFB00F040FA2046FFF77E
:1048C00057FA002882D0B8F1000F0BD0FFF752FC46
:1048D0002046FFF729F906463146A068FFF7FCFCA1
:1048E000FFF762FC002092E704ED00E070B5064699
:1048F0000C46FFF73FFC124802687068131A2068E4
:10490000401C08B9002517E00E4930680968884244
:1049100004D07068904201D801250DE020689842CB
:1049200007D92068C01A20603046FFF7B3FC002585
:1049300002E0002020600125FFF736FC284670BD0C
:10494000580000206C0000202DE9FF4F85B0804604
:1049500089461746DDE912ABB800FFF721FB064692
:1049600056B16020FFF71CFB04460CB1266304E03F
:104970003046FFF729FC00E000247CB10020CDE99F
:1049800000ABCDE902403A4649464046089BFFF756
:104990003EF92046FFF700F8012501E04FF0FF3512
:1049A000284609B0BDE8F08F70B506461825304698
:1049B000FBF73AFCFFF720FD00BF6D1E05EB8501FC
:1049C000144A02EB81003146FFF732FA044604B183
:1049D00001E0002DF1D100BF2CB931460E4800682E
:1049E000FFF726FA04462CB931460C480068FFF759
:1049F0001FFA044624B931460948FFF719FA04465C
:104A000024B931460748FFF713FA044600F096F937
:104A1000204670BD64020020480000204C000020A9
:104A200094040020800400200549096809B9012088
:104A300005E00449096809B9022000E00020704738
:104A4000600000207C0000202DE9F04100273B4859
:104A50000068002866D13A480068451C384805605F
:104A6000A5B93848006800683648D0F80080364854
:104A70000068344908603448C0F800803348006852
:104A8000401C32490860FFF7B9F900BF30480068A0
:104A900085423BD300BF2B480068006808B901205D
:104AA00000E0002020B14FF0FF30294908602CE0E1
:104AB00024480068C068C4686668B54202D22448C9
:104AC000066022E0201DFFF7F7FAA06A18B104F192
:104AD0001800FFF7F1FA94F82C10012088401D49C6
:104AE000096808431B490860E16A01EB81011A4A21
:104AF00002EB8100211DFFF731FB1849E06A0968CC
:104B0000C96A8842C7D30127C5E700BF13480068B8
:104B1000C06A00EB8000104951F82000012800D93C
:104B2000012704E00E480068401C0D4908600D484C
:104B3000006800B101273846BDE8F0817C00002004
:104B400058000020480000204C0000206C0000208D
:104B5000740000205C00002064020020440000205B
:104B6000640000206800002070B505462C46002631
:104B7000002D37D01C480068606D401E6065216DB7
:104B8000E06A88422ED0606D60BB201DFFF794FA6A
:104B900078B9E06A00EB8000144951F8200040B970
:104BA00094F82C100120884011490968814310486D
:104BB0000160206DE062E06AC0F11800A06194F825
:104BC0002C10012088400A490968084308490860F8
:104BD000E16A01EB8101054A02EB8100211DFFF72B
:104BE000BDFA0126304670BD44000020640200205A
:104BF0005C00002070B505462C460026002D54D0E0
:104C00002B49E06A0968C96A884247D2A06900F066
:104C1000004028B926480068C06AC0F11800A061A9
:104C2000E16A01EB8101234A02EB8101606988425C
:104C300001D1012000E0002050B3201DFFF73CFA15
:104C400078B9E06A00EB80001A4951F8200040B9B9
:104C500094F82C10012088401749096881431648B0
:104C6000016013480068C06AE06294F82C100120CB
:104C700088401149096808430F490860E16A01EB5F
:104C800081010C4A02EB8100211DFFF767FA03E066
:104C900007480068C06AE062012606E00449206D0A
:104CA0000968C96A884200D20126304670BD0000FA
:104CB00044000020640200205C00002070B506461D
:104CC000F068C46804F11800FFF7F6F915480068A9
:104CD000A8B9201DFFF7F0F994F82C1001208840A6
:104CE00011490968084310490860E16A01EB810134
:104CF0000E4A02EB8100211DFFF730FA04E004F1B7
:104D000018010B48FFF72AFA0A49E06A0968C96ADC
:104D1000884204D9012501200749086000E00025E8
:104D2000284670BD7C0000205C000020640200204A
:104D30006C040020440000206800002070B50024AE
:104D4000002630480068FFF715FA2E480068401E1C
:104D50002C4908600846006800284FD12A4800689E
:104D600000284BD024E02948C068C46804F118002A
:104D7000FFF7A2F9201DFFF79FF994F82C100120EE
:104D8000884023490968084321490860E16A01EB2A
:104D90008101204A02EB8100211DFFF7DFF91E4946
:104DA000E06A0968C96A884202D301201B49086089
:104DB0001648006808B9012000E000200028D2D081
:104DC0000CB1FFF71BF81648056865B100BFFFF787
:104DD0003BFE10B10120114908606D1E002DF6D177
:104DE00000200F4908600D48006838B101263007DF
:104DF0000C490860BFF34F8FBFF36F8FFFF7D4F9F3
:104E0000304670BD7C000020540000206C0400205F
:104E10005C000020640200204400002068000020A4
:104E20006400002004ED00E034431010013443100E
:104E30001001DDDDDDDDDCBBBBDDDDDDDDDDDDDD90
:104E4000DDDD98888888888888887777777777887D
:104E500088888555555666666666666666666668BF
:104E600088888333333222222222222222222228BD
:104E7000888D0000944E000800000020A40000006F
:104E8000D02F0008384F0008A4000020043600008E
:104E9000E02F0008000000000000000001020304F1
:104EA00001020304060708090204060800A24A04D6
:104EB00000000000000000000102030406070809CA
:104EC00000000000000000000000000000000000E2
:104ED00000000000000000000000000000000000D2
:104EE00000000000000000000000000000000000C2
:104EF00000000000000000000000000000000000B2
:104F000000000000000000000000000000000000A1
:104F10000000000000000000000000000000000091
:104F2000000000000000000000000000AAAAAAAAD9
:084F3000000000000000000079
:04000005080000ED02
:00000001FF
